:100000000C9470030C9498030C9498030C9498032C
:100010000C9498030C9498030C9498030C949803F4
:100020000C9498030C9498030C941F090C94F606F6
:100030000C9498030C9498030C9498030C949803D4
:100040000C9498030C9498030C9498030C949803C4
:100050000C9498030C9498030C9498030C94AE069B
:100060000C9498030C9498030C9498030C949803A4
:100070000C9498030C9498030C9498030C94980394
:100080000C9498030C9498030C9498030C94980384
:100090000C9498030C9498030C9498030C94980374
:1000A0000C9498030C9498030C949803120100028A
:1000B000EF020140412336800001010203010403E5
:1000C000090441726475696E6F204C4C43004172A3
:1000D0006475696E6F204C656F6E6172646F0008A5
:1000E0000B000202020000090400000102020000ED
:1000F0000524001001052401010104240206052441
:100100000600010705810310004009040100020AEE
:1001100000000007050202400000070583024000BE
:1001200000F0F89C8E8783878E9CF8F00000FEFF1D
:100130000303030303070EFCF80000FEFF030303A1
:100140000303070EFCF80000FFFF000000000000A2
:1001500000FFFF0000FEFF8383838383C7EE7C38AC
:100160000000F8FC0E07030303070EFCF800003F35
:100170007FE0C08080C0E07F3FFFFF0101010101FF
:100180000101FFFF0000FFFF0C0C0C0C1C3E77E38D
:10019000C100007FFFC0C0C0C0C0E0703F1F0000B2
:1001A0001F3F70E0C0C0C0E0703F1F00007FFFC174
:1001B000C1C1C1C1E3773E1C00001F3F70E0C0C059
:1001C000C0E0703F1F000000000001FFFF010000C1
:1001D00000D5F08D14A1C881CFD9F1AF2000000067
:1001E0000000003E5B4F5B3E3E6B4F6B3E1C3E7C17
:1001F0003E1C183C7E3C181C577D571C1C5E7F5EC5
:100200001C00183C1800FFE7C3E7FF001824180083
:10021000FFE7DBE7FF30483A060E2629792926401A
:100220007F050507407F05253F5A3CE73C5A7F3E46
:100230001C1C08081C1C3E7F14227F22145F5F00D8
:100240005F5F06097F017F006689956A6060606074
:100250006094A2FFA29408047E040810207E20105F
:1002600008082A1C08081C2A08081E101010100C68
:100270001E0C1E0C30383E3830060E3E0E060000B6
:1002800000000000005F00000007000700147F145A
:100290007F14242A7F2A12231308646236495620C9
:1002A000500008070300001C2241000041221C00EE
:1002B0002A1C7F1C2A08083E0808008070300008AD
:1002C00008080808000060600020100804023E5181
:1002D00049453E00427F4000724949494621414913
:1002E0004D331814127F1027454545393C4A49497A
:1002F0003141211109073649494936464949291EE4
:1003000000001400000040340000000814224114D2
:1003100014141414004122140802015909063E4124
:100320005D594E7C1211127C7F494949363E41414C
:1003300041227F4141413E7F494949417F090909A5
:10034000013E414151737F0808087F00417F410011
:100350002040413F017F081422417F404040407FC0
:10036000021C027F7F0408107F3E4141413E7F090D
:100370000909063E4151215E7F091929462649494E
:10038000493203017F01033F4040403F1F2040208E
:100390001F3F4038403F631408146303047804038C
:1003A0006159494D43007F4141410204081020003A
:1003B0004141417F040201020440404040400003AB
:1003C00007080020545478407F2844443838444477
:1003D0004428384444287F385454541800087E096F
:1003E0000218A4A49C787F0804047800447D40008F
:1003F0002040403D007F1028440000417F40007CA9
:10040000047804787C080404783844444438FC18A0
:1004100024241818242418FC7C0804040848545484
:10042000542404043F44243C4040207C1C204020B1
:100430001C3C4030403C44281028444C9090907C18
:100440004464544C4400083641000000770000002A
:100450004136080002010204023C2623263C1EA16C
:10046000A161123A4040207A3854545559215555CB
:10047000794121545478412155547840205455797C
:10048000400C1E527212395555555939545454590D
:1004900039555454580000457C410002457D4200C6
:1004A00001457C40F0292429F0F0282528F07C54CF
:1004B0005545002054547C547C0A097F49324949EF
:1004C00049323248484832324A4848303A4141215C
:1004D0007A3A42402078009DA0A07D3944444439B6
:1004E0003D4040403D3C24FF2424487E4943662B48
:1004F0002FFC2F2BFF0929F620C0887E09032054EA
:100500005479410000447D413048484A32384040E7
:10051000227A007A0A0A727D0D19317D2629292F47
:1005200028262929292630484D402038080808085F
:1005300008080808382F10C8ACBA2F102834FA0061
:10054000007B000008142A142222142A14089500A3
:10055000220095AA005500AAAA55AA55AA00000093
:10056000FF00101010FF00141414FF001010FF0003
:10057000FF1010F010F0141414FC001414F700FF16
:100580000000FF00FF1414F404FC141417101F10D3
:10059000101F101F1414141F00101010F000000082
:1005A000001F101010101F10101010F0100000008D
:1005B000FF101010101010101010FF10000000FF9E
:1005C000140000FF00FF00001F10170000FC04F4DF
:1005D00014141710171414F404F40000FF00F71497
:1005E000141414141414F700F7141414171410101E
:1005F0001F101F141414F4141010F010F000001F3A
:10060000101F0000001F14000000FC140000F01078
:10061000F01010FF10FF141414FF141010101F001E
:10062000000000F010FFFFFFFFFFF0F0F0F0F0FF20
:10063000FFFF0000000000FFFF0F0F0F0F0F3844F7
:100640004438447C2A2A3E147E02020606027E02B8
:100650007E0263554941633844443C04407E201E79
:100660002006027E020299A5E7A5991C2A492A1CA8
:100670004C7201724C304A4D4D303048784830BC95
:10068000625A463D3E494949007E0101017E2A2ABF
:100690002A2A2A44445F444440514A444040444A40
:1006A00051400000FF0103E080FF000008086B6B71
:1006B000083612362436060F090F060000181800F7
:1006C00000001010003040FF0101001F01011E005A
:1006D000191D1712003C3C3C3C0000000000CB0BF5
:1006E00011241FBECFEFDAE0DEBFCDBF25E0ACE3C3
:1006F000B1E001C01D92A33BB207E1F711E0A0E019
:10070000B1E0E0E2F8E102C005900D92AC33B10730
:10071000D9F713E0C0E7D3E004C02197FE010E949F
:10072000E80BCF36D107C9F70E948C090C94040C52
:100730000C94000080E090E0089508957F928F92DD
:100740009F92AF92BF92CF92DF92EF92FF920F9360
:100750001F93CF93DF936D3009F459C00091AF051B
:100760001091B0059801285F3F4F79016A3009F474
:1007700046C0C091B105D091B20535E0639FF0014C
:100780001124E252FE4FCE0160E020E1B22E712C26
:10079000653031F0AF014F5F5F4F2491722EFA0147
:1007A000A801A72DA170AA2E80389105B8F4403475
:1007B0005105A0F49A0171E021FD74E020FD770F4E
:1007C00022FD7295287FB29ED0011124A80FA15559
:1007D000BE4F3C91A11459F1372B3C9376944F5F57
:1007E0005F4F4E155F05E9F66F5F0196663009F0C1
:1007F000CECF2696D093B205C093B10508C0109213
:10080000B2051092B1053093B0052093AF0581E099
:1008100090E0DF91CF911F910F91FF90EF90DF90CB
:10082000CF90BF90AF909F908F907F9008957095DC
:100830003723D3CF3E983F9808958FB18095807F1E
:10084000669B88601C9B84600895CF92DF92EF9234
:10085000FF920F931F93CF93DF937C016A0100E017
:1008600010E00C151D0551F4C801DF91CF911F91C7
:100870000F91FF90EF90DF90CF900895EB01D7019B
:10088000ED91FC910190F081E02D6991C7010995EE
:10089000892B51F30F5F1F4FBE01E3CF3FB7F89491
:1008A00080919F019091A001A091A101B091A2011E
:1008B00026B5A89B05C02F3F19F00196A11DB11DBB
:1008C0003FBFBA2FA92F982F8827BC01CD01620FF7
:1008D000711D811D911D42E0660F771F881F991FB2
:1008E0004A95D1F708958F929F92AF92BF92CF927F
:1008F000DF92EF92FF926B017C010E944E044B014C
:100900005C01C114D104E104F104B9F00E944E0469
:10091000681979098A099B09683E73408105910528
:1009200080F321E0C21AD108E108F10888EE880EB0
:1009300083E0981EA11CB11CE4CFFF90EF90DF90E4
:10094000CF90BF90AF909F908F900895BC0180E0B2
:1009500090E00C947304615028F4289884E6809306
:100960009E0108952091F100FC012193CF01F3CF66
:1009700040919C0150919D0120919A0130919B01E1
:1009800042175307BCF49091E80095709115D9F384
:100990009091E80092FD19C08093F10080919C0134
:1009A00090919D0101968F739927892B19F48EEFF1
:1009B0008093E80080919C0190919D010196909315
:1009C0009D0180939C0181E0089580E00895EF925D
:1009D000FF920F931F93CF93DF93F82E192FE62EDC
:1009E000042F81E0860F880F0E94B80483E00E94E4
:1009F000B804CF2DD12FEC0EFD2EF11CCE15DF0546
:100A000011F481E00EC0011599F0FE0184910E945D
:100A1000B804182F80E00E94B80481232196811128
:100A2000EDCFDF91CF911F910F91FF90EF9008953F
:100A30008881EDCFFC018485958597FD0BC09FB71C
:100A4000F89482E08093E9008091F2009FBF90E0EB
:100A5000019608959FB7F89482E08093E900809111
:100A6000F2009FBF90E0089583E08093E9008091B9
:100A7000F200811519F08AE38093E8000895CF937E
:100A8000DF930F92CDB7DEB7DC016983ED91FC9166
:100A90000280F381E02D41E050E0BE016F5F7F4FA7
:100AA00009950F90DF91CF91089580919001811168
:100AB0000DC082E080938C0184E080938D011092C0
:100AC0008F0110928E0181E0809390018CE891E07B
:100AD00008952FB7F89483E08093E9009091E8009F
:100AE000892F807295FF04C09091F20080E4891BE9
:100AF0002FBF08950E94690590E008956F927F923C
:100B00008F929F92AF92BF92CF92DF92EF92FF921D
:100B10000F931F93CF93DF936C017B01EA018091C8
:100B20000B01811571F18091AA01811551F180911C
:100B3000A80180FF05C08091E00082608093E00002
:100B40005E01912C8AEF882E93E0692E2AE3722EA3
:100B50000CC00E94690581112BC08A9491F061E05C
:100B600070E080E090E00E947304A114B10489F762
:100B70009110EFCF5D9884E6809398011C161D06B6
:100B80003CF081E090E0F60193838283C0E0D0E006
:100B9000CE01DF91CF911F910F91FF90EF90DF90E9
:100BA000CF90BF90AF909F908F907F906F9008955F
:100BB000A816B1040CF48A2D9FB7F8946092E9004E
:100BC0002091E80025FD02C09FBFCFCF482F50E005
:100BD000A81AB1089701815040F4E40EF51E911453
:100BE00051F07092E800912CEFCFF9012191209300
:100BF000F1009F01F0CF8091E80085FDF4CF709265
:100C0000E80099249394A114B104F1F2ECCF9091EF
:100C1000AA01911103C08FEF9FEF08952FB7F894A9
:100C200092E09093E9009091F200492F50E09111E9
:100C300002C0452B31F0289884E680939E01809174
:100C4000F100911102C02FBFE6CF9091F2009111F7
:100C500003C09BE69093E8002FBF90E008950F93A8
:100C60001F93CF93DF938C01FC01C485D585D7FFFB
:100C700006C00E940706EC01F80195878487CE0123
:100C8000DF91CF911F910F910895FC018485958587
:100C900097FD0C9407062FEF3FEF358724870895C3
:100CA000EFEAF1E0A0E0B8E000800EBC8111012C79
:100CB0001197A0FDFDCF0192B9F70DB40895FF92F1
:100CC0000F931F93CF93DF93F82EEB018B01040F4B
:100CD000151FC017D10749F0F11469F0FE01849186
:100CE0000E94B80421968111F4CFDF91CF911F911A
:100CF0000F91FF9008958881F3CF0F931F93CF93A7
:100D0000DF930F92CDB7DEB782E0898342E450E0F3
:100D10006FED70E080E80E945F060E945505DC01DF
:100D200012960D911C910115110539F489810F90CE
:100D3000DF91CF911F910F910895D801ED91FC9112
:100D40000280F381E02DBE016F5F7F4FC8010995DE
:100D500097FDECCFF80100851185E5CF1F921FB6F6
:100D60001F9211242F933F938F939F93AF93BF9321
:100D70008091A4019091A501A091A601B091A70135
:100D80003091A30123E0230F2D3750F50196A11DCB
:100D9000B11D2093A3018093A4019093A501A0937A
:100DA000A601B093A70180919F019091A001A0910D
:100DB000A101B091A2010196A11DB11D80939F01D7
:100DC0009093A001A093A101B093A201BF91AF9114
:100DD0009F918F913F912F911F901FBE1F9018954B
:100DE00026E8230F0296A11DB11DD3CF1F920F92AB
:100DF0000FB60F921124BF92CF92DF92EF92FF9223
:100E00000F931F932F933F934F935F936F937F9312
:100E10008F939F93AF93BF93EF93FF93CF93DF9302
:100E2000CDB7DEB76C97DEBFCDBF1092E9008091E1
:100E3000E80083FF30C08E010B5E1F4F68E0C801E1
:100E40000E94AB0482EF8093E8008D89C02EB12E02
:100E500087FF12C09091E80090FFFCCF982F90760A
:100E600091112CC12F89388DEE89EA3088F4F0E099
:100E7000EA5FF34F0C94E80B9EEF9093E800EECFFF
:100E8000803849F58091A9018093F1001092F1001A
:100E90008EEF8093E8006C960FB6F894DEBF0FBE1D
:100EA000CDBFDF91CF91FF91EF91BF91AF919F9116
:100EB0008F917F916F915F914F913F912F911F91F2
:100EC0000F91FF90EF90DF90CF90BF900F900FBEEB
:100ED0000F901F9018951092F100D8CF8111D8CFA4
:100EE00021303105A9F68091A9018D7F8093A90158
:100EF000CFCF8111CDCF2130310551F68091A9019D
:100F00008260F4CF8091E80080FFFCCF8F898068F9
:100F10008093E300BDCFD88C0B8D1C8D22E0109206
:100F2000E90010929D0110929C01D2122EC01092E5
:100F30009B0110929A010E947D061F8299E099837D
:100F4000DA8291E09E8390EA98879AEF99872091C0
:100F50009C0130919D01275F3F4F3C832B838D8304
:100F60001092E90010929D0110929C0110939B0138
:100F700000939A0149E050E0BE016F5F7F4F80E02F
:100F80000E945F060E947D0683CF10939B01009311
:100F90009A010E945505DC0112960D911C910115D4
:100FA000110531F4F1E0DF1214C06CEA70E05AC0B0
:100FB000D801ED91FC910480F581E02D6C2D7B2D05
:100FC000C8010995009709F037C1F801008511851E
:100FD000E6CFF3E0DF120EC08F89811509F440C01F
:100FE000823061F440E860E18EEC90E00E94E7041A
:100FF00081114ECF81E28093EB004DCF813029F4F7
:1010000040E86BE082EC90E0F1CF833099F70E94EA
:101010005505DC011296ED90FC908E010F5F1F4F7D
:101020006801E114F10469F4D8011C92F601019001
:101030000020E9F73197BF016C197D0940E0C60136
:10104000D5CFD701ED91FC910680F781E02DB80155
:10105000C7010995080F111DF701E084F184E1CF64
:101060006EEB70E0FB01449150E080E80E945F0667
:101070000FCF81E08093F1000BCF83708111BACF45
:10108000EBE2F1E081E021E036E39191911569F026
:101090008093E9002093EB00DF019E919093EC0098
:1010A0003093ED008F5F873081F78EE78093EA0001
:1010B0001092EA008F898093AA01EACE8B8D9C8DD5
:1010C0001092E90010929D0110929C0190939B0157
:1010D00080939A01898D811195C08E899D89913A5D
:1010E00049F4813209F086CF47E050E064E071E0D6
:1010F00080E0BCCF913209F07DCF833269F48F89D3
:10110000988DA0E0B0E08093000190930101A0933E
:101110000201B0930301BCCE803269F48091E800F3
:1011200082FFFCCF67E084E091E00E94AB048BEF8C
:101130008093E800ADCE823209F0AACE8F898093E9
:101140000B01EEEFFFE7859195918B3F9C4D51F19F
:10115000E0E0F8E08091040190910501A091060182
:10116000B0910701803B9440A105B105F1F4809155
:101170000B0180FD1AC0EE3F8AE0F80791F587E782
:1011800097E791838083809160008093990188E143
:101190009BE00FB6F894A895809360000FBE9093E3
:1011A000600076CEEEEFFAE0D5CF8081918187376F
:1011B000974709F06DCEA895809160008861809373
:1011C00060008091990180936000EE3FFA40A9F0A1
:1011D0008091FE0A9091FF0A909301088093000885
:1011E00057CE80910008909101088737980739F20F
:1011F0009093FF0A8093FE0AC2CF1092FF0A1092CA
:10120000FE0A46CE0E945505DC0112960D911C91F6
:101210000115110509F4EECED801ED91FC91019074
:10122000F081E02D6C2D7B2DC8010995811130CE08
:10123000F80100851185ECCF0CF02ACEDBCE1F9291
:101240001FB61F9211248F939F938091E10090917C
:10125000E100937F9093E10083FF0FC01092E900BB
:1012600091E09093EB001092EC0092E39093ED00EC
:101270001092AA0198E09093F00082FF22C093E0C0
:101280009093E9009091F200911519F09AE39093F0
:10129000E80090919801911541F09091980191503A
:1012A00090939801911101C05D9A90919E019115C2
:1012B00041F090919E01915090939E01911101C037
:1012C000289A84FF17C08091E2008E7E816080930F
:1012D000E2008091E1008F7E8093E1008091A8017F
:1012E0008E7E80618093A8019F918F911F901FBE79
:1012F0001F90189580FFF8CF8091E2008E7E80616C
:101300008093E2008091E1008E7E8093E1008091E5
:10131000A8018E7E8160E6CF789484B5826084BD1A
:1013200084B5816084BD85B5826085BD85B58160E9
:1013300085BD80916E00816080936E001092810067
:101340008091810082608093810080918100816022
:1013500080938100809180008160809380008091E3
:1013600091008260809391008091910081608093D0
:101370009100809190008160809390008091C100E5
:1013800084608093C1008091C10082608093C1001D
:101390008091C10081608093C1008091C300816011
:1013A0008093C3008091C00082608093C0008091D0
:1013B000C20081608093C20080917A008460809333
:1013C0007A0080917A00826080937A0080917A001E
:1013D000816080937A0080917A00806880937A009F
:1013E0001092AA011092A9011092A8018091D70031
:1013F00081608093D70080EA8093D80089B58061AE
:1014000089BD89B5826089BD09B400FEFDCF61E068
:1014100070E080E090E00E9473048091D8008F7C9F
:1014200080618093D8008091E000807F8093E0000D
:101430008091E1008E7E8093E1008DE08093E20058
:10144000559A209A81EC80937C0085B1806F85B994
:1014500084B1877E84B984B1876E84B95E9A5F98BF
:101460008AB1806D8AB9769A6E9881B3806F81BB9C
:10147000899880B38D7080BB80E58CBD81E08DBD87
:1014800085E090E00E94A6045F9A85E090E00E94CB
:10149000A6045E985C98E1EDF1E084918EBD0000B9
:1014A0000DB407FEFDCF319641E0EE3DF407A9F7FC
:1014B0005C9A81E8809364008091650081608093EC
:1014C000650080E00E9450060E941D0487FF40C016
:1014D0005C9885EA8EBD00000DB407FEFDCF5C9AD6
:1014E0002E982F982D9880916400806280936400DC
:1014F00081E083BF889513BEFCCF2D980E941D0408
:101500008478843809F469C00E941D048471843190
:10151000D9F42D9A88EC90E00E94A6042E9882E0DF
:1015200090E00E94EE0B811529F060E082E090E0EF
:101530000E94F60B84EF91E00E94A6042E9A0E946E
:101540001D0484718431D9F388EC90E00E94A604D4
:101550000E941D0482FDD1CF2D9A82E090E00E946E
:10156000EE0B811509F455C03E9A3F9A81E090E058
:101570000E94EE0B81FF11C0582F5470752E82FD12
:101580002E98C1EFDFEF68E0A62EB12C0E941D045B
:1015900086FF42C02E9A2F9A2D9A82E390E00E94F5
:1015A000A6040E941D048111F8CF0E941A0447E08E
:1015B00050E061E371E08BEA91E00E94250442E093
:1015C00050E069E371E08BEA91E00E942504C0E0FD
:1015D000D0E0209709F0DCC0FFCF2D9A88EC90E096
:1015E0000E94A6042F9882E090E00E94EE0B8F3FAD
:1015F00029F06FEF82E090E00E94F60B84EF91E01B
:101600000E94A6042F9A0E941D0484788438D9F37E
:101610007BCF0E941A04AACF711429F0C430D105DF
:1016200011F42E9A2F9881E00E9450069E01D7FF58
:1016300004C0222733272C1B3D0B27703327CE01F4
:10164000D7FD079653E0959587955A95E1F7D7FF13
:1016500005C00197F501E21BF30B9F012C01569485
:10166000542C44245794479400E010E04501821A1A
:10167000930A8E3FFFEF9F0709F052C0019640E8A2
:10168000440E511C0835110509F047C080E00E9446
:1016900050068FE090E00E94A6042196C931D10542
:1016A00009F074CF711411F02F9A2D9880E991E010
:1016B0000E94A6042D9A81E090E00E94EE0B80FF2C
:1016C0006CCF8AE090E00E94EE0B682F8FEF860FC0
:1016D0008E3F08F062CF82E390E09093B205809352
:1016E000B10588E390E09093B0058093AF05CBE01F
:1016F000D0E08BEA91E00E949E03CE010E94EE0BA7
:10170000682F2196C131D105A1F780E00E945006D3
:1017100088EE93E00E94A60440CF08E510E0A9CF30
:10172000F801EF5DFE4F1F01D201A155BE4F60E0F1
:1017300070E08F3F980771F0F101E490022E01C034
:10174000EE0C0A94EAF75496FC905497FE285496AF
:10175000FC9254972115310589F0F101E4906D0157
:10176000F4E9CF0ED11CF12C082C02C0F594E794BB
:101770000A94E2F7F601F080FE28F0826F5F7F4F57
:10178000FFEF2F1A3F0A11966835710591F676CF53
:101790000E9400001ECFECE3F1E01382128288EE7B
:1017A00093E0A0E0B0E084839583A683B78380E1D3
:1017B00091E0918380838FEF9FEF95878487EBEA99
:1017C000F1E01382128282E291E091838083089596
:1017D000EE0FFF1F0590F491E02D0994F999FECFCB
:1017E00092BD81BDF89A992780B50895262FF99961
:1017F000FECF1FBA92BD81BD20BD0FB6F894FA9AF4
:10180000F99A0FBE01960895F894FFCF40076E072E
:1018100048077907480782078B07FA0739083D0808
:10182000FFFFFFFF00E100000000000000000000DB
:101830003F057E057A0534051A0545062F0600008A
:1018400000009E0325049A039D0300C180810000CF
:0C185000004D6F6E2043756C000D0A0007
:00000001FF
